{
  "_format": "hh-sol-artifact-1",
  "contractName": "MerkleTree",
  "sourceName": "contracts/MerkleTree.sol",
  "abi": [
    {
      "inputs": [],
      "stateMutability": "nonpayable",
      "type": "constructor"
    },
    {
      "inputs": [
        {
          "internalType": "uint256",
          "name": "",
          "type": "uint256"
        }
      ],
      "name": "hashes",
      "outputs": [
        {
          "internalType": "uint256",
          "name": "",
          "type": "uint256"
        }
      ],
      "stateMutability": "view",
      "type": "function"
    },
    {
      "inputs": [],
      "name": "index",
      "outputs": [
        {
          "internalType": "uint256",
          "name": "",
          "type": "uint256"
        }
      ],
      "stateMutability": "view",
      "type": "function"
    },
    {
      "inputs": [
        {
          "internalType": "uint256",
          "name": "hashedLeaf",
          "type": "uint256"
        }
      ],
      "name": "insertLeaf",
      "outputs": [
        {
          "internalType": "uint256",
          "name": "",
          "type": "uint256"
        }
      ],
      "stateMutability": "nonpayable",
      "type": "function"
    },
    {
      "inputs": [],
      "name": "root",
      "outputs": [
        {
          "internalType": "uint256",
          "name": "",
          "type": "uint256"
        }
      ],
      "stateMutability": "view",
      "type": "function"
    },
    {
      "inputs": [
        {
          "internalType": "uint256[2]",
          "name": "a",
          "type": "uint256[2]"
        },
        {
          "internalType": "uint256[2][2]",
          "name": "b",
          "type": "uint256[2][2]"
        },
        {
          "internalType": "uint256[2]",
          "name": "c",
          "type": "uint256[2]"
        },
        {
          "internalType": "uint256[1]",
          "name": "input",
          "type": "uint256[1]"
        }
      ],
      "name": "verify",
      "outputs": [
        {
          "internalType": "bool",
          "name": "",
          "type": "bool"
        }
      ],
      "stateMutability": "view",
      "type": "function"
    },
    {
      "inputs": [
        {
          "internalType": "uint256[2]",
          "name": "a",
          "type": "uint256[2]"
        },
        {
          "internalType": "uint256[2][2]",
          "name": "b",
          "type": "uint256[2][2]"
        },
        {
          "internalType": "uint256[2]",
          "name": "c",
          "type": "uint256[2]"
        },
        {
          "internalType": "uint256[1]",
          "name": "input",
          "type": "uint256[1]"
        }
      ],
      "name": "verifyProof",
      "outputs": [
        {
          "internalType": "bool",
          "name": "r",
          "type": "bool"
        }
      ],
      "stateMutability": "view",
      "type": "function"
    }
  ],
  "bytecode": "0x608060405260006001553480156200001657600080fd5b50604080516101e081018252600080825260208201819052918101829052606081018290526080810182905260a0810182905260c0810182905260e08101829052610100810182905261012081018290526101408101829052610160810182905261018081018290526101a081018290526101c081018290526200009d9190600f62000791565b5073__$86e0c54df1042e28bf2dd20ccf184dc428$__6329a5f2f6604051806040016040528060008081548110620000d957620000d9620007fd565b906000526020600020015481526020016000600181548110620001005762000100620007fd565b90600052602060002001548152506040518263ffffffff1660e01b81526004016200012c919062000813565b602060405180830381865af41580156200014a573d6000803e3d6000fd5b505050506040513d601f19601f8201168201806040525081019062000170919062000846565b6000600881548110620001875762000187620007fd565b906000526020600020018190555073__$86e0c54df1042e28bf2dd20ccf184dc428$__6329a5f2f660405180604001604052806000600281548110620001d157620001d1620007fd565b906000526020600020015481526020016000600381548110620001f857620001f8620007fd565b90600052602060002001548152506040518263ffffffff1660e01b815260040162000224919062000813565b602060405180830381865af415801562000242573d6000803e3d6000fd5b505050506040513d601f19601f8201168201806040525081019062000268919062000846565b60006009815481106200027f576200027f620007fd565b906000526020600020018190555073__$86e0c54df1042e28bf2dd20ccf184dc428$__6329a5f2f660405180604001604052806000600481548110620002c957620002c9620007fd565b906000526020600020015481526020016000600581548110620002f057620002f0620007fd565b90600052602060002001548152506040518263ffffffff1660e01b81526004016200031c919062000813565b602060405180830381865af41580156200033a573d6000803e3d6000fd5b505050506040513d601f19601f8201168201806040525081019062000360919062000846565b6000600a81548110620003775762000377620007fd565b906000526020600020018190555073__$86e0c54df1042e28bf2dd20ccf184dc428$__6329a5f2f660405180604001604052806000600681548110620003c157620003c1620007fd565b906000526020600020015481526020016000600781548110620003e857620003e8620007fd565b90600052602060002001548152506040518263ffffffff1660e01b815260040162000414919062000813565b602060405180830381865af415801562000432573d6000803e3d6000fd5b505050506040513d601f19601f8201168201806040525081019062000458919062000846565b6000600b815481106200046f576200046f620007fd565b906000526020600020018190555073__$86e0c54df1042e28bf2dd20ccf184dc428$__6329a5f2f660405180604001604052806000600881548110620004b957620004b9620007fd565b906000526020600020015481526020016000600981548110620004e057620004e0620007fd565b90600052602060002001548152506040518263ffffffff1660e01b81526004016200050c919062000813565b602060405180830381865af41580156200052a573d6000803e3d6000fd5b505050506040513d601f19601f8201168201806040525081019062000550919062000846565b6000600c81548110620005675762000567620007fd565b906000526020600020018190555073__$86e0c54df1042e28bf2dd20ccf184dc428$__6329a5f2f660405180604001604052806000600a81548110620005b157620005b1620007fd565b906000526020600020015481526020016000600b81548110620005d857620005d8620007fd565b90600052602060002001548152506040518263ffffffff1660e01b815260040162000604919062000813565b602060405180830381865af415801562000622573d6000803e3d6000fd5b505050506040513d601f19601f8201168201806040525081019062000648919062000846565b6000600d815481106200065f576200065f620007fd565b906000526020600020018190555073__$86e0c54df1042e28bf2dd20ccf184dc428$__6329a5f2f660405180604001604052806000600c81548110620006a957620006a9620007fd565b906000526020600020015481526020016000600d81548110620006d057620006d0620007fd565b90600052602060002001548152506040518263ffffffff1660e01b8152600401620006fc919062000813565b602060405180830381865af41580156200071a573d6000803e3d6000fd5b505050506040513d601f19601f8201168201806040525081019062000740919062000846565b6000600e81548110620007575762000757620007fd565b90600052602060002001819055506000600e815481106200077c576200077c620007fd565b60009182526020909120015460025562000860565b828054828255906000526020600020908101928215620007d4579160200282015b82811115620007d4578251829060ff16905591602001919060010190620007b2565b50620007e2929150620007e6565b5090565b5b80821115620007e25760008155600101620007e7565b634e487b7160e01b600052603260045260246000fd5b60408101818360005b60028110156200083d5781518352602092830192909101906001016200081c565b50505092915050565b6000602082840312156200085957600080fd5b5051919050565b61164280620008706000396000f3fe608060405234801561001057600080fd5b50600436106100625760003560e01c80632986c0e5146100675780632fa8ea6d1461008357806343753b4d146100a6578063501895ae146100b9578063b7202434146100cc578063ebf0c717146100df575b600080fd5b61007060015481565b6040519081526020015b60405180910390f35b610096610091366004611308565b6100e8565b604051901515815260200161007a565b6100966100b4366004611308565b61010f565b6100706100c73660046113e6565b610220565b6100706100da3660046113e6565b610241565b61007060025481565b805160025460009114801561010457506101048585858561010f565b90505b949350505050565b600061011961111c565b60408051808201825287518152602080890151818301529083528151608081018352875151818401908152885183015160608301528152825180840184528883018051518252518301518184015281830152838201528151808301835286518152868201518183015283830152815160018082528184019093526000929091828101908036833701905050905060005b60018110156101f8578481600181106101c4576101c46113ff565b60200201518282815181106101db576101db6113ff565b6020908102919091010152806101f08161142b565b9150506101a9565b5061020381836104db565b60000361021557600192505050610107565b600092505050610107565b6000818154811061023057600080fd5b600091825260209091200154905081565b600081600060015481548110610259576102596113ff565b600091825260208220019190915560015481908060035b801561049257610281600283611444565b6000036103615773__$86e0c54df1042e28bf2dd20ccf184dc428$__6329a5f2f66040518060400160405280600086815481106102c0576102c06113ff565b9060005260206000200154815260200160008660016102df9190611466565b815481106102ef576102ef6113ff565b90600052602060002001548152506040518263ffffffff1660e01b8152600401610319919061147e565b602060405180830381865af4158015610336573d6000803e3d6000fd5b505050506040513d601f19601f8201168201806040525081019061035a91906114af565b9450610436565b73__$86e0c54df1042e28bf2dd20ccf184dc428$__6329a5f2f66040518060400160405280600060018761039591906114c8565b815481106103a5576103a56113ff565b90600052602060002001548152602001600086815481106103c8576103c86113ff565b90600052602060002001548152506040518263ffffffff1660e01b81526004016103f2919061147e565b602060405180830381865af415801561040f573d6000803e3d6000fd5b505050506040513d601f19601f8201168201806040525081019061043391906114af565b94505b6104418160026115c3565b61044b9085611466565b935060019290921c9161045e8385611466565b91508460008381548110610474576104746113ff565b6000918252602090912001558061048a816115d6565b915050610270565b50600081815481106104a6576104a66113ff565b906000526020600020015460028190555060018060008282546104c99190611466565b90915550506002549695505050505050565b60007f30644e72e131a029b85045b68181585d2833e84879b9709143e1f593f0000001816105076106d2565b90508060800151518551600161051d9190611466565b146105645760405162461bcd60e51b81526020600482015260126024820152711d995c9a599a595c8b5898590b5a5b9c1d5d60721b60448201526064015b60405180910390fd5b604080518082019091526000808252602082018190525b86518110156106555783878281518110610597576105976113ff565b6020026020010151106105ec5760405162461bcd60e51b815260206004820152601f60248201527f76657269666965722d6774652d736e61726b2d7363616c61722d6669656c6400604482015260640161055b565b6106418261063c85608001518460016106059190611466565b81518110610615576106156113ff565b60200260200101518a858151811061062f5761062f6113ff565b6020026020010151610a6b565b610b01565b91508061064d8161142b565b91505061057b565b5061067e818360800151600081518110610671576106716113ff565b6020026020010151610b01565b90506106b46106908660000151610b9a565b8660200151846000015185602001518587604001518b604001518960600151610c39565b6106c457600193505050506106cc565b600093505050505b92915050565b6106da61116d565b6040805180820182527f2d4d9aa7e302d9df41749d5507949d05dbea33fbb16c643b22f599a2be6df2e281527f14bedd503c37ceb061d8ec60209fe345ce89830a19230301f076caff004d19266020808301919091529083528151608080820184527f0967032fcbf776d1afc985f88877f182d38480a653f2decaa9794cbc3bf3060c8285019081527f0e187847ad4c798374d0d6732bf501847dd68bc0e071241e0213bc7fc13db7ab606080850191909152908352845180860186527f304cfbd1e08a704a99f5e847d93f8c3caafddec46b7a0d379da69a4d112346a781527f1739c1b1a457a8c7313123d24d2f9192f896b7c63eea05a9d57f06547ad0cec8818601528385015285840192909252835180820185527f198e9393920d483a7260bfb731fb5d25f1aa493335a9e71297e485b7aef312c28186019081527f1800deef121f1e76426a00665e5c4479674322d4f75edadd46debd5cd992f6ed828501528152845180860186527f090689d0585ff075ec9e99ad690c3395bc4b313370b38ef355acdadcd122975b81527f12c85ea5db8c6deb4aab71808dcb408fe3d1e7690c43d37b4ce6cc0166fa7daa818601528185015285850152835190810184527f2b67751ab9a1235b455d7373922345a4b434cc42b99f00b928615b07eef940be8185019081527f18be6491e906c8c631e58502427e97fb05ffcef7736537467b866b9978a0a024828401528152835180850185527f23610c8e3ef64017ce480913a66c2e6ee042b90568fda5d6da1ab5ffc5a455ae81527f1e952da91f61877517596627cc774e47dc5ea35e0ccdfecc8b84200d921f5fc9818501528184015281850152825160028082529181019093529082015b604080518082019091526000808252602082015281526020019060019003908161095357505060808201908152604080518082019091527f21a7b89565336c60d8c6ce72856f4d16b1f431c7ae7e0e517e1449ec281024b281527f2a7f138ab028fa93233f700d7a26c3f9569c38fcedb75ab6a0fceaf43a6db82c6020820152905180516000906109e6576109e66113ff565b602002602001018190525060405180604001604052807f2761a7ae21b37f6d754580a9945acb294442c0c09fa7a6181c38490adbcb17ca81526020017f1a1f9baf3b61afe59f6451c457a8cd323da01bfbd24eb858b497c42d67f822e38152508160800151600181518110610a5d57610a5d6113ff565b602002602001018190525090565b6040805180820190915260008082526020820152610a876111be565b835181526020808501519082015260408101839052600060608360808460076107d05a03fa90508080610ab657fe5b5080610af95760405162461bcd60e51b81526020600482015260126024820152711c185a5c9a5b99cb5b5d5b0b59985a5b195960721b604482015260640161055b565b505092915050565b6040805180820190915260008082526020820152610b1d6111dc565b8351815260208085015181830152835160408301528301516060808301919091526000908360c08460066107d05a03fa90508080610b5757fe5b5080610af95760405162461bcd60e51b81526020600482015260126024820152711c185a5c9a5b99cb5859190b59985a5b195960721b604482015260640161055b565b604080518082019091526000808252602082015281517f30644e72e131a029b85045b68181585d97816a916871ca8d3c208c16d87cfd4790158015610be157506020830151155b15610c015750506040805180820190915260008082526020820152919050565b604051806040016040528084600001518152602001828560200151610c269190611444565b610c3090846114c8565b90529392505050565b60408051600480825260a08201909252600091829190816020015b6040805180820190915260008082526020820152815260200190600190039081610c5457505060408051600480825260a0820190925291925060009190602082015b610c9e6111fa565b815260200190600190039081610c965790505090508a82600081518110610cc757610cc76113ff565b60200260200101819052508882600181518110610ce657610ce66113ff565b60200260200101819052508682600281518110610d0557610d056113ff565b60200260200101819052508482600381518110610d2457610d246113ff565b60200260200101819052508981600081518110610d4357610d436113ff565b60200260200101819052508781600181518110610d6257610d626113ff565b60200260200101819052508581600281518110610d8157610d816113ff565b60200260200101819052508381600381518110610da057610da06113ff565b6020026020010181905250610db58282610dc4565b9b9a5050505050505050505050565b60008151835114610e105760405162461bcd60e51b81526020600482015260166024820152751c185a5c9a5b99cb5b195b99dd1a1ccb59985a5b195960521b604482015260640161055b565b82516000610e1f8260066115ed565b905060008167ffffffffffffffff811115610e3c57610e3c611256565b604051908082528060200260200182016040528015610e65578160200160208202803683370190505b50905060005b838110156110a057868181518110610e8557610e856113ff565b60200260200101516000015182826006610e9f91906115ed565b610eaa906000611466565b81518110610eba57610eba6113ff565b602002602001018181525050868181518110610ed857610ed86113ff565b60200260200101516020015182826006610ef291906115ed565b610efd906001611466565b81518110610f0d57610f0d6113ff565b602002602001018181525050858181518110610f2b57610f2b6113ff565b6020908102919091010151515182610f448360066115ed565b610f4f906002611466565b81518110610f5f57610f5f6113ff565b602002602001018181525050858181518110610f7d57610f7d6113ff565b60209081029190910181015151015182610f988360066115ed565b610fa3906003611466565b81518110610fb357610fb36113ff565b602002602001018181525050858181518110610fd157610fd16113ff565b602002602001015160200151600060028110610fef57610fef6113ff565b6020020151826110008360066115ed565b61100b906004611466565b8151811061101b5761101b6113ff565b602002602001018181525050858181518110611039576110396113ff565b602002602001015160200151600160028110611057576110576113ff565b6020020151826110688360066115ed565b611073906005611466565b81518110611083576110836113ff565b6020908102919091010152806110988161142b565b915050610e6b565b506110a961121a565b6000602082602086026020860160086107d05a03fa905080806110c857fe5b508061110e5760405162461bcd60e51b81526020600482015260156024820152741c185a5c9a5b99cb5bdc18dbd9194b59985a5b1959605a1b604482015260640161055b565b505115159695505050505050565b6040805160a0810190915260006060820181815260808301919091528152602081016111466111fa565b8152602001611168604051806040016040528060008152602001600081525090565b905290565b6040805160e08101909152600060a0820181815260c08301919091528152602081016111976111fa565b81526020016111a46111fa565b81526020016111b16111fa565b8152602001606081525090565b60405180606001604052806003906020820280368337509192915050565b60405180608001604052806004906020820280368337509192915050565b604051806040016040528061120d611238565b8152602001611168611238565b60405180602001604052806001906020820280368337509192915050565b60405180604001604052806002906020820280368337509192915050565b634e487b7160e01b600052604160045260246000fd5b6040805190810167ffffffffffffffff8111828210171561128f5761128f611256565b60405290565b6040516020810167ffffffffffffffff8111828210171561128f5761128f611256565b600082601f8301126112c957600080fd5b6112d161126c565b8060408401858111156112e357600080fd5b845b818110156112fd5780358452602093840193016112e5565b509095945050505050565b60008060008061012080868803121561132057600080fd5b61132a87876112b8565b9450604087605f88011261133d57600080fd5b61134561126c565b8060c089018a81111561135757600080fd5b838a015b8181101561137c5761136d8c826112b8565b8452602090930192840161135b565b5081975061138a8b826112b8565b9650505050508661011f8701126113a057600080fd5b6113a8611295565b9086019080888311156113ba57600080fd5b61010088015b838110156113d85780358352602092830192016113c0565b509598949750929550505050565b6000602082840312156113f857600080fd5b5035919050565b634e487b7160e01b600052603260045260246000fd5b634e487b7160e01b600052601160045260246000fd5b60006001820161143d5761143d611415565b5060010190565b60008261146157634e487b7160e01b600052601260045260246000fd5b500690565b6000821982111561147957611479611415565b500190565b60408101818360005b60028110156114a6578151835260209283019290910190600101611487565b50505092915050565b6000602082840312156114c157600080fd5b5051919050565b6000828210156114da576114da611415565b500390565b600181815b8085111561151a57816000190482111561150057611500611415565b8085161561150d57918102915b93841c93908002906114e4565b509250929050565b600082611531575060016106cc565b8161153e575060006106cc565b8160018114611554576002811461155e5761157a565b60019150506106cc565b60ff84111561156f5761156f611415565b50506001821b6106cc565b5060208310610133831016604e8410600b841016171561159d575081810a6106cc565b6115a783836114df565b80600019048211156115bb576115bb611415565b029392505050565b60006115cf8383611522565b9392505050565b6000816115e5576115e5611415565b506000190190565b600081600019048311821515161561160757611607611415565b50029056fea2646970667358221220f35e5540db3d26a02162b7009686c762234fe2fb7b577b845ca90af59ba4585864736f6c634300080d0033",
  "linkReferences": {
    "contracts/Poseidon.sol": {
      "PoseidonT3": [
        {
          "length": 20,
          "start": 160
        },
        {
          "length": 20,
          "start": 407
        },
        {
          "length": 20,
          "start": 655
        },
        {
          "length": 20,
          "start": 903
        },
        {
          "length": 20,
          "start": 1151
        },
        {
          "length": 20,
          "start": 1399
        },
        {
          "length": 20,
          "start": 1647
        },
        {
          "length": 20,
          "start": 2810
        },
        {
          "length": 20,
          "start": 3027
        }
      ]
    }
  },
  "deployedLinkReferences": {
    "contracts/Poseidon.sol": {
      "PoseidonT3": [
        {
          "length": 20,
          "start": 650
        },
        {
          "length": 20,
          "start": 867
        }
      ]
    }
  }
}